:020000040000FA
:0400000058EF03F0C2
:080008009AEF15F0056A046E81
:10001000FF0E0426D8A005260000D8A01200030E6B
:10002000016EE70E02D8F4D7016AFE0F006E0000E1
:1000300000D000D0E86A015AD8A01200000600D013
:1000400000D0F5D7106A116A126A136A0A6A0B6A3D
:100050000C6A0D6A09500810071006102CE0200EDB
:10006000F36ED89000360136023603360A360B3668
:100070000C360D3609500D5C08E108500C5C05E1AA
:1000800007500B5C02E106500A5C0FE306500A5E63
:100090000750D8A0073C0B5E0850D8A0083C0C5E67
:1000A0000950D8A0093C0D5ED880103611361236A2
:1000B0001336F32ED6D71200076A066A100E106E9A
:1000C0000134063607360450065E0550D8A0053CBC
:1000D000075E07E2045006260550D8B0053C072607
:1000E000D89000360136102EEBD700501200200EAB
:1000F000106E0A6A0B6A0C6A0D6AD89000A00ED0C6
:1001000006500A260750D8B0073C0B260850D8B036
:10011000083C0C260950D8B0093C0D260D320C3293
:100120000B320A320332023201320032102EE5D78E
:100130001200F86AA66AA68E0900F55002E0EE6E7B
:10014000FBD7120011500C6E15180F6E145053E0AF
:10015000105254E0105E7F0E03E2102603E24DD0F1
:1001600010264EE213C00AF012C00BF00C8E158E52
:10017000180E0E6E136A126A116A0BD017500A5CC1
:1001800016500B5811E30B6E0C6A17500A5E0BD019
:1001900004E215500C5CF2E007E317500A5E1650BB
:1001A0000B5A15500C5AD8801336123611360A36AF
:1001B0000B360C360E2EECD711BE07D010521DE0B8
:1001C0000F3210060E2A0F36E3D718AC1FD007E205
:1001D00017500A5E16500B5A15500C5A17E3133E6F
:1001E00015D0123E13D0113E11D0113212321332FB
:1001F000103E0CD005D0188604D01884106A02D0A6
:1002000018821068136A126A800E116E0FAE119E6A
:100210001350120011500C6E15180F6E1050D8A408
:1002200014503CE010267E0E03E3105E03E338D04A
:10023000105E33E313C00AF012C00BF00C8E158E63
:10024000136A126A116A180E0E6E0C320B320A32E1
:1002500006E31750132616501222155011221132A0
:10026000123213320E2EF1D711BE07D013361236CA
:100270001136105212E010060C3418AC17D016E3E9
:10028000133E14D0123E12D0113E10D0D88011323D
:1002900012321332103E0AD003D01884106A02D0F2
:1002A00018821068136A126A800E116E0FAE119ECA
:1002B0001350120011C00FF07F0E105C0E6E32E36F
:1002C000118E106A0A6A17080E6E0BE2080E0E26CF
:1002D0002BE311C010F012C011F013C012F0136A1A
:1002E0000CD0080E0E5E08E313C00AF012C013F023
:1002F00011C012F0116AF5D70E260E5208E0D89000
:1003000010321132123213320A320E2EF8D710BECA
:100310000BD00FAE10D0D880000E135612561156C7
:10032000105609D0000E02D01882FF0E106E116E0A
:10033000126E136E109E13501200126A136A10C0D0
:1003400000F013C010F000C013F012C000F011C094
:1003500012F000C011F0960E0E6E0F6A10AE07D0AC
:10036000D880000E13561256115610560F8E10528A
:1003700018E018AC0DD013AE0BD0123E09D0113ED0
:1003800007D0103E05D0D8801032113212320E2A1A
:10039000080E0E2612C013F011C012F010C011F09A
:1003A00015D0116613D0080E0E5E125005E1080E2E
:1003B0000E5E135011E0136A116E13C012F0136A2F
:1003C00005D0D8901336123611360E0611AEF9D775
:1003D0000EC010F00FAE119E1350120041542B436B
:1003E000495053454E4445583D302C0053454E54DA
:1003F0003A005354415254484947484552007C45BD
:100400004E444849474845527C00526963657675B9
:10041000746F20726563765F737472696E673A00F9
:1004200020697374723A000023554E4C4F434B457C
:1004300044002341435455414C7C000023424F4F1C
:10044000547C4155544F5343414E000023424F4F7B
:10045000547C4C415354000023504152414D45546B
:1004600045527C002357524F4E470000436F6D6149
:100470006E646F20726963657675746F3A00205000
:100480004152414D4554524F3A0023737461727486
:100490007363616E000023537C0023656E64736395
:1004A000616E000023460000234155544F534341E1
:1004B0004E00234C4153540023464F5243454420A1
:1004C0004C454654000023464F5243454420524970
:1004D0004748540023464F52434544204F46460068
:1004E000234D41587C00234D494E7C0023504153FD
:1004F00053574F52443A000041542B4357534150F5
:100500005F4445463D00444A495F4650565F0000FF
:100510003132333435363738393000002C352C3011
:10052000000023535349443A000023524553455495
:1005300020434F554E544552530023550000234A43
:100540000000234B00005265616479003030303088
:10055000000041542B4349505354414D41433F0007
:1005600041542B43574D4F44455F4445463D33006E
:1005700041542B4349504D55583D310041542B5265
:1005800046564444000041542B434950534552566B
:1005900045523D312C3230303000444A495F46509C
:1005A000565F414E414C4F470000467269656E648C
:1005B0006C79206E616D653A41542B43575341501D
:1005C0005F4445463D0023232E232300237C4832ED
:1005D0007C00237C48317C0046494E45204C494EE6
:1005E00045413A002B4950442C002C434F4E4E4578
:1005F0004354000023597C00434F4D414E444F006B
:10060000434C4F5345440000E916D516C116AD16AC
:100610009916851671165D16651678168B169E1638
:10062000B116C416D716EA164916351621160D1638
:10063000FD161117251739176C1680169416BC165F
:10064000D016E416F8161A163F1664168916AE165A
:10065000D316F8161D171C163F1667168A16AD1608
:10066000F6161A17CF1667168A16AD16CF16671626
:100670008A16AD16CF161C16441671162B16531675
:1006800076169E16E2160A171A163F168016A81638
:10069000F8161C163F1667168A16AD16F6161A17A8
:1006A000CF161C16441671162D167816BE162B176B
:1006B000188CA66AA68EE4EF15F01FC037F312005F
:1006C0001FB0C2841FA0C2941FB2C2861FA2C296CE
:1006D0001FB4C2881FA4C2981FB6C28A1FA6C29A9E
:1006E00003013753000103E1C280C28206D0C280F9
:1006F0000301375114EC00F0C2820001C2B2FED7F0
:10070000C290C4CF21F0C3CF20F01200AB6A948E08
:100710008B8C949C1FC0AFFF240EAC6E900EAB6E02
:100720001200ABA202D0AB98AB8812009EA8FED7F5
:100730000001AD6E1200FAD700EE80F0EF5203E038
:10074000EE50F4DFFBD712001F5204E0E5CFEEFFBE
:100750001F06FAD7120010EE23F0446A21C001F000
:1007600020C000F0056A22C004F05CEC00F006C076
:1007700045F00A0E455C02E3070E4526300E45247F
:10078000E46E21C001F020C000F0056A22C004F030
:100790005CEC00F0206E01C021F0442A21502010B2
:1007A000DDE144C01FF0D0DFEE6A12002580215049
:1007B000245C02E224C021F02150E926000EEA2246
:1007C000ED6A215229E01F5209E125A002D0300E26
:1007D000236E23C0EDFF22C023F01BD0016A1FC08F
:1007E00000F0056A20C004F05CEC00F006C026F0C2
:1007F0000A0E265C02E3070E2626300E2624ED6E36
:10080000016A1FC000F0056A20C004F05CEC00F033
:100810001F6E21062590D5D7120026802250255C18
:1008200002E225C022F02250E926000EEA22ED6AFB
:1008300022522EE020501F1009E126A002D0300ED7
:10084000246E24C0EDFF23C024F01FD020C001F08F
:100850001FC000F0056A21C004F05CEC00F006C087
:1008600027F00A0E275C02E3070E2726300E272406
:10087000ED6E20C001F01FC000F0056A21C004F039
:100880005CEC00F01F6E01C020F022062690D0D74D
:10089000120028802450275C02E227C024F0245054
:1008A000E926000EEA22ED6A2452D8B441D0225043
:1008B000211020101F1009E128A002D0300E266E52
:1008C00026C0EDFF25C026F030D022C003F021C0A5
:1008D00002F020C001F01FC000F0096A086A076A30
:1008E00023C006F022EC00F00AC029F00A0E295CB1
:1008F00002E3070E2926300E2924ED6E22C003F0F4
:1009000021C002F020C001F01FC000F0096A086A8F
:10091000076A23C006F022EC00F013C022F012C0D8
:1009200021F011C020F010C01FF024062890BCD781
:10093000120000EE1FF02E6A2D6A2C6A2B6AEECF91
:100940002AF029902D0E2A5C03E12980EECF2AF0AF
:100950002A5229E0036A026A016A0A0E006E2EC05A
:1009600009F02DC008F02CC007F02BC006F077EC82
:1009700000F003C032F002C031F001C030F000C01E
:100980002FF0300E2A5C336E33502F242B6E000E66
:1009900030202C6E000E31202D6E000E32202E6E77
:1009A000EECF2AF0D5D729A009D02B1E2C1E2D1E44
:1009B0002E1E2B2A000E2C222D222E22120000EE9B
:1009C0009CF0100E246E99C01FF00A0E206E9AC083
:1009D00021F09BC022F09BC023F0E8D600EE76F019
:1009E00075C021F074C020F00A0E226EB4D600EE5D
:1009F00084F0100E256E81C020F080C01FF00A0E1A
:100A0000216E82C022F083C023F083C024F005D77A
:100A1000DDC0DEF000EEDFF0D896DBAFD8860DE467
:100A2000300EDD5D04E1DC072D0EEE6E02D02D0EE2
:100A3000DE6FD880000EDA57DB57100E256EDBC054
:100A400020F0DAC01FF00A0E216EDCC022F0DDC0FB
:100A500023F0DEC024F0E1D600EE9FF0100E276EEA
:100A60009CC022F09BC021F09AC020F099C01FF0DA
:100A70000A0E236E9DC024F09EC025F09EC026F075
:100A800008D7F2CF1FF0F29EA66AA680A8CF20F06A
:100A9000800EA66EA92A1FBEF28E1200F2DF20C0C1
:100AA00022F0EFDF20C023F01200F2CF34F0F29EEC
:100AB000A66AA684550EA76EAA0EA76EA682A6B237
:100AC000FED7A694800EA66EA92A34BEF28E12001E
:100AD00036C0A8FFEADF37C0A8FFE7D723C025F05C
:100AE00022C024F025C0EAFF24C0E9FFCADF20C0ED
:100AF000EEFFA8CF24F02452F9E1120000EE36F008
:100B0000EECFA8FFD2DFA8CF40F04052F9E11200AB
:100B10006F6B00EE1FF0EE5202E06F2BFCD712005D
:100B200000EE1FF077C0E2FF76C0E1FFE65002E082
:100B3000EE6EFCD7EF6AECDF6FC07BF07A6B75C0AE
:100B40007DF074C07CF07DC0EAFF7CC0E9FF77C017
:100B50007DF076C07CF078517C25E16E000E7D2121
:100B6000E26E79517A5D08E27B51785D05E2E6CF6D
:100B7000EEFF7A2B782BF5D7EF6A1200D169D06996
:100B8000CE6BCD6B00EE1FF010EE74F0E65002E07D
:100B9000EE6EFCD7EF6ABCDF6FC0CFF0CF51CE5DF9
:100BA0003AE210EE7DF0CD51E126000EE222E7CFD1
:100BB000D4F0D45330E010EE7DF0CD51E126000E9C
:100BC000E222E7CFD4F010EE74F0CE51E126000E11
:100BD000E222E7CFD7F0D451D75D1AE1CE2BCE5128
:100BE000CF5D15E1D36BCDC0D2F0D56BCFC0D4F0C3
:100BF000D451D25DD66FD551D359D76FD96B010E71
:100C0000D86FD851D625D06FD951D721D16F01D007
:100C1000CE6BCD2BC3D71200756BDA0E746F776B6A
:100C2000DA0E766F2AC178F02BC179F079DF01EE08
:100C30002CF010EEDAF0E65002E0EE6EFCD7EF6A30
:100C4000120020C07EF31FC07DF303017A6B7B6B23
:100C500039933995000191EC03F09D8AF28E1200D0
:100C6000F29EF2BEFDD71F9003017A517B5D000119
:100C7000D8A41F80F28E12001F90ABB206D0D89677
:100C8000030139A5D8860001D8A61F8012000301F0
:100C9000399313EE3AF07B51E126000EE222E7CFC2
:100CA0001FF07B2B400E7B5D000102E303017B6B99
:100CB00000011200F29EF2BEFDD7E9DF1FC023F053
:100CC000F28E120020C080F31FC07FF3120EF36E6D
:100CD000000EF46EF35003017F25816FF4508021E4
:100CE000826F090EF36E000EF46EF3507F27F450FE
:100CF0008023010E266E215004E0D8902636E82E7F
:100D0000FCD7000126C083F30301831D846F80C3D9
:100D1000EAFF7FC3E9FFD89689A3D886000105E4DE
:100D200003018451EF16000103D003018351EF1238
:100D3000000182C3EAFF81C3E9FF040E03018915A4
:100D4000246E2452000105E103018451EF160001D5
:100D500003D003018351EF120001120020C086F37B
:100D60001FC085F3D89003018631886F8531876F66
:100D7000000112001FC089F3120086C301F00301B5
:100D8000855115EC00F00001120089C31BF01C6AAC
:100D9000D896030189A3D886000103E483C31CF01D
:100DA000191E83C31DF084C31EF080C3EAFF7FC3F6
:100DB000E9FF82C3E2FF81C3E1FF090E1A6ED8800A
:100DC0001BB0D89001D01932E7501E14D8B01D10B6
:100DD0001C181BA41E14E76EEF501E14D8B01D1073
:100DE000EF6EBDEC06F01A2EEED7E7501D101BA4D7
:100DF0001E141C6EEF501E141BB01D1000D01CC022
:100E0000E7FFEF6EBADF03018A5303E18B53000162
:100E100007E000018BC301F003018A5115EC00F0DB
:100E200000011200196EB1D70101446BF4C045F105
:100E30000101455300010FE045C119F0A6DF010192
:100E4000442B10EEF4F04451E126000EE222E7CFED
:100E500045F10001EDD7120020C0DAFF1FC0D9FF15
:100E6000010E226E215004E0D8902236E82EFCD7E5
:100E7000221C236E2350DF16120020C0DAFF1FC091
:100E8000D9FF010E226E215004E0D8902236E82EC0
:100E9000FCD72250DF14246E245203E0010E236E8F
:100EA00001D0236A12008B969496140E14EC00F075
:100EB0008B989498140E14EC00F08B869496140E74
:100EC00014EC00F08B969496140E14EF00F08B96B1
:100ED0009496140E14EC00F08B889498140E14EC75
:100EE00000F08B869496140E14EC00F08B9694967A
:100EF000140E14EF00F0DF0E1F5C256E010E20585B
:100F0000266ED8902630226E2530216E21500301A6
:100F1000906F2250016E050E006E01329033000674
:100F2000FCE19051200DF3CF25F0F4CF26F02550B1
:100F3000215C916F9051800DF3CF25F0F4CF26F016
:100F400091512524236E000E2620246E00011200EC
:100F500039C020F038C01FF0CEDF24C09BF323C07F
:100F60009AF339C0AFF338C0AEF38B8294928B847E
:100F70009494050EE82EFED78B9294928B949494C1
:100F800092DF91DF90DFA3DF8EDF010E0301996F07
:100F90000001150E0301995D000105E284DF0301E4
:100FA000992B0001F5D78B8294928B849494050E33
:100FB000E82EFED78B9294928B949494050EE82E93
:100FC000FED78B8294928B849494050EE82EFED7E4
:100FD0008B9294928B9494947ADF65DF64DF63DF65
:100FE00076DF0301996B0001080E0301995D000192
:100FF00011E2030E206E9A0E1F6E99C321F03DDFA1
:10100000010E235C02E163DF01D04DDF0301992B68
:101010000001E9D70301996B0001080E0301995DF6
:10102000000111E2030E206E9B0E1F6E99C321F08A
:1010300024DF010E235C02E14ADF01D034DF03012B
:10104000992B0001E9D72FDF2EDF2DDF2CDF8B82DC
:1010500094928B849494050EE82EFED78B929492F2
:101060008B949494050EE82EFED78B8694968B96DF
:1010700094963AA00BD0040EA96E39C037F038C050
:1010800036F068EC05F0C80E06EC00F012001F6A9E
:1010900060EC03F021C0A3F320C0A2F31F6A60EC50
:1010A00003F021C0A3F320C0A2F30301B251A25D5B
:1010B000B351A359000104E2B3C3A3F3B2C3A2F333
:1010C0000301A251B65DA351B759000104E2B7C3B1
:1010D000A3F3B6C3A2F30301B251A25D226EB351D2
:1010E000A359236E23C011F022C010F09DEC01F033
:1010F00013C0D3F312C0D2F311C0D1F310C0D0F398
:10110000B351B75D000105E10301B251B65D0001C5
:1011100029E00301B251B65D226EB351B759236E77
:1011200023C011F022C010F09DEC01F013C017F0A5
:1011300012C016F011C015F010C014F0D3C313F094
:10114000D2C312F0D1C311F0D0C310F0A2EC00F062
:1011500013C0D3F312C0D2F311C0D1F310C0D0F337
:10116000000105D00301D36BD26BD16BD06B0001B2
:10117000176A166A480E156E850E146ED3C313F0E7
:10118000D2C312F0D1C311F0D0C310F00AEC01F0B9
:1011900013C025F012C024F011C023F010C022F0BB
:1011A00025C013F024C012F023C011F022C010F0AB
:1011B0005AEC01F012C0A5F30301A46F0001120064
:1011C000010E1F6E60EC03F021C0A3F320C0A2F358
:1011D000010E1F6E60EC03F021C0A3F320C0A2F348
:1011E0000301B451A25DB551A359000104E2B5C396
:1011F000A3F3B4C3A2F30301A251B85DA351B9593B
:10120000000104E2B9C3A3F3B8C3A2F30301B451CC
:10121000A25D226EB551A359236E23C011F022C0E6
:1012200010F09DEC01F013C0D3F312C0D2F311C043
:10123000D1F310C0D0F3B551B95D000105E1030150
:10124000B451B85D000129E00301B451B85D226ECC
:10125000B551B959236E23C011F022C010F09DEC96
:1012600001F013C017F012C016F011C015F010C035
:1012700014F0D3C313F0D2C312F0D1C311F0D0C312
:1012800010F0A2EC00F013C0D3F312C0D2F311C0DF
:10129000D1F310C0D0F3000105D00301D36BD26BA2
:1012A000D16BD06B0001176A166A480E156E850E59
:1012B000146ED3C313F0D2C312F0D1C311F0D0C354
:1012C00010F00AEC01F013C025F012C024F011C098
:1012D00023F010C022F025C013F024C012F023C068
:1012E00011F022C010F05AEC01F012C0A7F3030174
:1012F000A66F0001120000EE80F0030EF76EDC0E08
:10130000F66E99EC00F0EF6A9CEC03F001014A6B79
:10131000800E496F00EE1FF013EED4F0E65002E0AD
:10132000EE6EFCD7EF6A000188EC05F0020E6F2527
:10133000756B746F7537EEEC04F00101506B760E2F
:101340004F6F4AC1EAFF49C1E9FF50C1E2FF4FC1F7
:10135000E1FFE65002E0EE6EFCD7EF6A00019CEC84
:1013600003F00D0E9BEC03F00A0E9BEC03F0640EF1
:1013700006EC00F000EE80F013EED4F0E65002E050
:10138000EE6EFCD7EF6A9CEC03F00D0E9BEC03F0C5
:101390000A0E9BEC03F000EEF4F0030EF76EEC0E79
:1013A000F66E99EC00F0EF6A14EC07F000EEF4F042
:1013B00013EED4F0E65002E0EE6EFCD7EF6A14ECC8
:1013C00007F00D0E12EC07F00A0E12EC07F0030EF8
:1013D00001019A6FD40E996F9AC1EAFF99C1E9FF92
:1013E000EE6AEF6A320E06EC00F00001120000EE29
:1013F000F4F0030EF76EF20EF66E99EC00F0EF6A61
:1014000014EC07F00D0E12EC07F00A0E12EC07F0C8
:101410000301A96BA86B160EAB6FE90EAA6F976B51
:101420000001450E0301975D0001D8B05BD0D89054
:101430000301973501014A6F4B6B4B37060EF76E70
:10144000080EF66E4A51F6264B51F7220900F5CFE9
:101450009CF30900F5CF9DF33A909DC339F09CC3EE
:1014600038F00001A8EC07F00A0E06EC00F0D89660
:10147000010149A1D886000110E41F6A60EC03F065
:1014800021C0A5F320C0A4F3010E1F6E60EC03F091
:1014900021C0A7F320C0A6F302D0F9DD91DE03013D
:1014A000A651A45DA751A559000105E2A7C3A3F366
:1014B000A6C3A2F304D0A5C3A3F3A4C3A2F303015C
:1014C000A251A85DA351A959000108E2A3C3A9F341
:1014D000A2C3A8F39DC3ABF39CC3AAF30301972B4C
:1014E00000019ED7ABC39DF3AAC39CF300EEF4F0BA
:1014F000030EF76EFE0EF66E99EC00F0EF6A14EC38
:1015000007F001014B6BF40E4A6F300E0001836F40
:101510009DC381F09CC380F0040E826FF7EC04F051
:1015200001014D6B840E4C6F4BC1EAFF4AC1E9FFCC
:101530004DC1E2FF4CC1E1FFE65002E0EE6EFCD788
:10154000EF6A000114EC07F07C0E12EC07F00D0EB0
:1015500012EC07F00A0E12EC07F03A809DC339F046
:101560009CC338F0A8EF07F0030E0201216FD40EE0
:10157000206F236B740E226F23C2EAFF22C2E9FFA1
:101580003A0EEE6EEF6A00EE7DF013EED4F0E65008
:1015900002E0EE6EFCD7EF6A0001BEEC05F002013E
:1015A000296B010E286F28510001D02501012A6FF7
:1015B00000EEDAF013EED4F0E65002E0EE6EFCD767
:1015C000EF6A2B6900010CEC06F0010E02012F6F8F
:1015D0002C0E2E6F21C2EAFF20C2E9FF2FC2E2FFCC
:1015E0002EC2E1FFE65002E0EE6EFCD7EF6A040E79
:1015F0000101D36F2E0ED26FD56B740ED46FD5C18F
:10160000EAFFD4C1E9FF3A0EEE6EEF6A00EE7DF01C
:1016100013EED4F0E65002E0EE6EFCD7EF6A000164
:10162000BEEC05F00101DB6B010EDA6FDA5100014F
:10163000D05D01012A6F00EEDAF013EED4F0E6502F
:1016400002E0EE6EFCD7EF6A010E2B6F00010CEC8E
:1016500006F0010E0101E16F2C0EE06FD3C1EAFF2D
:10166000D2C1E9FFE1C1E2FFE0C1E1FFE65002E0E3
:10167000EE6EFCD7EF6A00EEF4F0040EF76E0A0E81
:10168000F66E99EC00F0EF6A000114EC07F000EE42
:10169000F4F013EED4F0E65002E0EE6EFCD7EF6A01
:1016A00014EC07F000EEF4F0040EF76E200EF66E68
:1016B00099EC00F0EF6A14EC07F000EEF4F014EE91
:1016C0002EF0E65002E0EE6EFCD7EF6A14EC07F065
:1016D0000D0E12EC07F00A0E12EC07F0040E0101D9
:1016E000D16F2E0ED06FD1C1EAFFD0C1E9FF5A0EE3
:1016F000EE5C0001D8A45ED1EF52D8A45BD1500EAD
:10170000A96E040E236E240E226E6EEC05F0040EFC
:101710000101D16F240ED06F00EEDAF013EED4F099
:10172000E65002E0EE6EFCD7EF6A2B69020E2A6FDC
:1017300000010CEC06F0010E0101D76F2C0ED66FE4
:10174000D1C1EAFFD0C1E9FFD7C1E2FFD6C1E1FFB5
:10175000E650EF5C02E1EE66FBD70001D8A41CD195
:1017600003018D8503EED4F0040EF76E280EF66E9D
:1017700099EC00F0EF6A00017BEC09F0640E06ECD6
:1017800000F0030E0201216FD40E206F300E000115
:10179000836FAFC381F0AEC380F0040E826FF7ECAD
:1017A00004F00201236B840E226F21C2EAFF20C2E3
:1017B000E9FF040EF76E320EF66E23C2E2FF22C27C
:1017C000E1FF99EC00F0E65002E0EE6EFCD7EF6A24
:1017D00000017BEC09F0640E06EC00F0A96A41EC14
:1017E00005F020520CE103EED4F0040EF76E3C0E2F
:1017F000F66E99EC00F0EF6A7BEC09F00BD003EE8B
:10180000D4F0040EF76E4C0EF66E99EC00F0EF6A11
:101810007BEC09F0640E06EC00F0030E0201216F70
:10182000D40E206F300E00019B6F93C399F0020E0F
:101830009A6FDFEC04F00201236B9C0E226F020E04
:10184000366F240E356F36C2EAFF35C2E9FF23C278
:10185000E2FF22C2E1FFE65002E0EE6EFCD7EF6A43
:1018600021C2EAFF20C2E9FF040EF76E580EF66EA1
:1018700036C2E2FF35C2E1FF99EC00F0E65002E02B
:10188000EE6EFCD7EF6A21C2EAFF20C2E9FF21C257
:10189000E2FF20C2E1FFE65002E0EE6EFCD77C0ED4
:1018A000EE6EEF6A300E00019B6F94C399F0030E49
:1018B0009A6FDFEC04F00201386B9C0E376F020E5A
:1018C0004B6F390E4A6F4BC2EAFF4AC2E9FF38C27A
:1018D000E2FF37C2E1FFE65002E0EE6EFCD7EF6AAE
:1018E00021C2EAFF20C2E9FF21C2E2FF20C2E1FFDC
:1018F000E65002E0EE6EFCD74BC2E2FF4AC2E1FFC7
:10190000E65002E0EE6EFCD7EF6A21C2EAFF20C289
:10191000E9FF21C2E2FF20C2E1FFE65002E0EE6EE5
:10192000FCD77C0EEE6EEF6A300E00019B6F95C304
:1019300099F0030E9A6FDFEC04F002014D6B9C0EE0
:101940004C6F21C2EAFF20C2E9FF21C2E2FF20C2A0
:10195000E1FFE65002E0EE6EFCD74DC2E2FF4CC262
:10196000E1FFE65002E0EE6EFCD7EF6A21C2EAFF2B
:1019700020C2E9FF21C2E2FF20C2E1FFE65002E0FF
:10198000EE6EFCD77C0EEE6EEF6A00017BEC09F088
:10199000640E06EC00F00ED003018D8503EED4F04A
:1019A000040EF76E640EF66E99EC00F0EF6A00011B
:1019B0007BEC09F0D89603018DA5D8860001D8B636
:1019C00098EF15F0040E0101D16F2E0ED06FD1C12A
:1019D000EAFFD0C1E9FF460EEE5C000103E1EF52E1
:1019E000D8B44CD0040E0101D36F2E0ED26FD3C1E8
:1019F000EAFFD2C1E9FF500EEE5C000103E1EF52B5
:101A0000D8B43CD0040E0101D56F2E0ED46FD5C1D1
:101A1000EAFFD4C1E9FF520EEE5C000102E1EF5291
:101A20002DE0040E0101D76F2E0ED66FD7C1EAFF4D
:101A3000D6C1E9FF550EEE5C000102E1EF521EE057
:101A4000040E0101D96F2E0ED86FD9C1EAFFD8C19B
:101A5000E9FF4A0EEE5C000102E1EF520FE0040ED6
:101A60000101DB6F2E0EDA6FDBC1EAFFDAC1E9FF9D
:101A7000480EEE5C00012AE1EF5228E1040E01015C
:101A8000DB6F240EDA6F00EEDAF013EED4F0E650DE
:101A900002E0EE6EFCD7EF6A2B69020E2A6F00019E
:101AA0000CEC06F0010E0101E16F2C0EE06FDBC1C2
:101AB000EAFFDAC1E9FFE1C1E2FFE0C1E1FFE65080
:101AC00002E0EE6EFCD7EF6A00010BD0040E0101BC
:101AD000DB6F240EDA6FDBC1EAFFDAC1E9FFEE6AE1
:101AE000EF6A00010D0E12EC07F00A0E12EC07F07F
:101AF00000EEF4F0040EF76E6C0EF66E99EC00F04A
:101B0000EF6A14EC07F000EEF4F014EE2EF0E6505D
:101B100002E0EE6EFCD7EF6A14EC07F000EEF4F092
:101B2000040EF76E7E0EF66E99EC00F0EF6A14EC80
:101B300007F000EEF4F014EE24F0E65002E0EE6E52
:101B4000FCD7EF6A14EC07F00D0E12EC07F00A0E4A
:101B500012EC07F0040E0101D16F2E0ED06FD1C12F
:101B6000EAFFD0C1E9FF730EEE5C0001D8A419D1E1
:101B7000EF52D8A416D103EED4F0040EF76E8A0EFD
:101B8000F66E99EC00F0EF6A7BEC09F00301986BBC
:101B90000001450E0301985D0001D8B06ED0D890C9
:101BA000030198350101D06FD16BD137060EF76E66
:101BB000080EF66ED051F626D151F7220900F5CF66
:101BC000ACF30900F5CFADF33A90ADC339F0ACC337
:101BD00038F00001A8EC07F0140E06EC00F047EC1A
:101BE00008F0E0EC08F00301A75300010DE1100E2E
:101BF0000301A65D000108E20301A55304E1100EF4
:101C0000A45D000136E30001030E0201216FD40E32
:101C1000206FADC375F0ACC374F00001EEEC04F0BE
:101C20000201236B760E226F21C2EAFF20C2E9FF78
:101C3000040EF76E960EF66E23C2E2FF22C2E1FF9B
:101C400099EC00F0E65002E0EE6EFCD7EF6A21C29C
:101C5000EAFF20C2E9FF21C2E2FF20C2E1FFE65015
:101C600002E0EE6EFCD77C0EEE6EEF6A00017BECBC
:101C700009F00301982B00018BD70301AB6BAA6B12
:101C80000301AB530001D8A47AD00F0E0301AA5D63
:101C90000001D8B074D0D8900301AA350101D06FEB
:101CA0000301AB350101D16FD26BD237D36B060E76
:101CB000F76E920EF66ED051F626D151F72209003A
:101CC000F5CFACF30900F5CFADF33A90ADC339F0E1
:101CD000ACC338F00001A8EC07F00A0E06EC00F0E7
:101CE00047EC08F0E0EC08F00301A75300010DE118
:101CF000060E0301A65D000108E20301A55304E1FD
:101D0000060EA45D000136E30001030E0201216FFF
:101D1000D40E206FADC375F0ACC374F00001EEECCF
:101D200004F00201236B760E226F21C2EAFF20C26B
:101D3000E9FF040EF76E960EF66E23C2E2FF22C292
:101D4000E1FF99EC00F0E65002E0EE6EFCD7EF6A9E
:101D500021C2EAFF20C2E9FF21C2E2FF20C2E1FF67
:101D6000E65002E0EE6EFCD77C0EEE6EEF6A0001EC
:101D70007BEC09F00301AA4BAB2B000181D703EEEA
:101D8000D4F0040EF76E9A0EF66E99EC00F0EF6A3E
:101D90007BEC09F03A90AFC339F0AEC338F0A8EC51
:101DA00007F0040E0101D16F2E0ED06FD1C1EAFFF2
:101DB000D0C1E9FF460EEE5C0001D8A4D4D0EF52AA
:101DC000D8A4D1D000EE1FF014EE24F0E65002E0CB
:101DD000EE6EFCD7EF6A99EC04F02CC09DF32BC09B
:101DE0009CF33A809DC339F09CC338F0A8EC07F00F
:101DF000640E06EC00F047EC08F0E0EC08F0030E8F
:101E00000201216FD40E206F9DC375F09CC374F046
:101E10000001EEEC04F00201236B760E226F21C26A
:101E2000EAFF20C2E9FF040EF76EA40EF66E23C28D
:101E3000E2FF22C2E1FF99EC00F0E65002E0EE6E14
:101E4000FCD7EF6A21C2EAFF20C2E9FF21C2E2FF0C
:101E500020C2E1FFE65002E0EE6EFCD77C0EEE6E93
:101E6000EF6A300E0001836FA5C381F0A4C380F038
:101E7000030E826FF7EC04F00201256B840E246FD1
:101E8000020E386F260E376F38C2EAFF37C2E9FFFD
:101E900025C2E2FF24C2E1FFE65002E0EE6EFCD76D
:101EA000EF6A21C2EAFF20C2E9FF21C2E2FF20C29D
:101EB000E1FFE65002E0EE6EFCD738C2E2FF37C227
:101EC000E1FFE65002E0EE6EFCD7EF6A21C2EAFFC6
:101ED00020C2E9FF21C2E2FF20C2E1FFE65002E09A
:101EE000EE6EFCD77C0EEE6EEF6A300E0001836F53
:101EF000A7C381F0A6C380F0030E826FF7EC04F055
:101F000002013A6B840E396F21C2EAFF20C2E9FF59
:101F100021C2E2FF20C2E1FFE65002E0EE6EFCD7F4
:101F20003AC2E2FF39C2E1FFE65002E0EE6EFCD7B2
:101F3000EF6A21C2EAFF20C2E9FF21C2E2FF20C20C
:101F4000E1FFE65002E0EE6EFCD77C0EEE6EEF6A2B
:101F500000017BEC09F0040EA96E9DC337F09CC311
:101F600036F068EC05F0040E0101D16F2E0ED06F33
:101F7000D1C1EAFFD0C1E9FF410EEE5C000111E1E1
:101F8000EF520FE1A96AA86A55EC05F003EED4F010
:101F9000040EF76EA80EF66E99EC00F0EF6A7BEC7B
:101FA00009F0040E0101D16F2E0ED06FD1C1EAFFEE
:101FB000D0C1E9FF4C0EEE5C000112E1EF5210E1DE
:101FC000A96A010EA86E55EC05F003EED4F0040EDC
:101FD000F76EB20EF66E99EC00F0EF6A7BEC09F04A
:101FE000040E0101D16F2E0ED06FD1C1EAFFD0C116
:101FF000E9FF310EEE5C000112E1EF5210E1030146
:102000008D838B9A949A03EED4F0040EF76EB80E7B
:10201000F66E99EC00F0EF6A00017BEC09F0040E1B
:102020000101D16F2E0ED06FD1C1EAFFD0C1E9FFFF
:10203000320EEE5C000112E1EF5210E103018D83DC
:102040008B8A949A03EED4F0040EF76EC60EF66EE9
:1020500099EC00F0EF6A00017BEC09F0040E01013D
:10206000D16F2E0ED06FD1C1EAFFD0C1E9FF300E83
:10207000EE5C000110E1EF520EE103018D9303EEDF
:10208000D4F0040EF76ED40EF66E99EC00F0EF6A01
:1020900000017BEC09F0040E0101D16F2E0ED06F10
:1020A000D1C1EAFFD0C1E9FF4D0EEE5C0001D8A41A
:1020B000B2D0EF52D8A4AFD0010149810001F7ECB2
:1020C00009F0ABC39DF3AAC39CF33A909DC339F0CA
:1020D0009CC338F0A8EC07F0640E06EC00F01F6A11
:1020E00060EC03F021C0B7F320C0B6F3010E1F6E01
:1020F00060EC03F021C0B9F320C0B8F3320EA96E32
:10210000B7C337F0B6C336F068EC05F0340EA96EED
:10211000B9C337F0B8C336F068EC05F0030E02011E
:10212000216FD40E206F300E0001836FB7C381F092
:10213000B6C380F0030E826FF7EC04F00201236B4C
:10214000840E226F020E366F240E356F36C2EAFF00
:1021500035C2E9FF23C2E2FF22C2E1FFE65002E0FE
:10216000EE6EFCD7EF6A21C2EAFF20C2E9FF040E3F
:10217000F76EE00EF66E36C2E2FF35C2E1FF99EC73
:1021800000F0E65002E0EE6EFCD7EF6A21C2EAFFF3
:1021900020C2E9FF21C2E2FF20C2E1FFE65002E0D7
:1021A000EE6EFCD77C0EEE6EEF6A300E0001836F90
:1021B000B9C381F0B8C380F0030E826FF7EC04F06E
:1021C0000201386B840E376F21C2EAFF20C2E9FF9B
:1021D00021C2E2FF20C2E1FFE65002E0EE6EFCD732
:1021E00038C2E2FF37C2E1FFE65002E0EE6EFCD7F4
:1021F000EF6A21C2EAFF20C2E9FF21C2E2FF20C24A
:10220000E1FFE65002E0EE6EFCD77C0EEE6EEF6A68
:1022100000017BEC09F0040E0101D16F2E0ED06F8E
:10222000D1C1EAFFD0C1E9FF580EEE5C0001D8A48D
:10223000D2D0EF52D8A4CFD00301B76BB66BB96B35
:10224000B86B010E996F00010B0E0301995D00013F
:102250001BE21F6A60EC03F020500301B6272150F7
:10226000B723020E06EC00F0010E1F6E000160ECB9
:1022700003F020500301B8272150B9230A0E06ECC1
:1022800000F0992B0001DFD7B7C301F0B6C300F00F
:10229000056A0A0E046E5CEC00F00301B66F01C023
:1022A000B7F3B9C301F0B8C300F0056A0A0E046EB3
:1022B0005CEC00F0B86F01C0B9F3320EA96EB7C381
:1022C00037F0B6C336F0000168EC05F0340EA96EA5
:1022D000B9C337F0B8C336F068EC05F0030E02015D
:1022E000216FD40E206F300E0001836FB7C381F0D1
:1022F000B6C380F0030E826FF7EC04F00201236B8B
:10230000840E226F020E366F240E356F36C2EAFF3E
:1023100035C2E9FF23C2E2FF22C2E1FFE65002E03C
:10232000EE6EFCD7EF6A21C2EAFF20C2E9FF040E7D
:10233000F76EE00EF66E36C2E2FF35C2E1FF99ECB1
:1023400000F0E65002E0EE6EFCD7EF6A21C2EAFF31
:1023500020C2E9FF21C2E2FF20C2E1FFE65002E015
:10236000EE6EFCD77C0EEE6EEF6A300E0001836FCE
:10237000B9C381F0B8C380F0030E826FF7EC04F0AC
:102380000201386B840E376F21C2EAFF20C2E9FFD9
:1023900021C2E2FF20C2E1FFE65002E0EE6EFCD770
:1023A00038C2E2FF37C2E1FFE65002E0EE6EFCD732
:1023B000EF6A21C2EAFF20C2E9FF21C2E2FF20C288
:1023C000E1FFE65002E0EE6EFCD77C0EEE6EEF6AA7
:1023D00000017BEC09F0040E0101D16F2E0ED06FCD
:1023E000D1C1EAFFD0C1E9FF780EEE5C0001D8A4AC
:1023F00022D1EF52D8A41FD10301B36BB26BB56BDE
:10240000B46B010E996F00010B0E0301995D000181
:10241000D8B06AD01F6A60EC03F021C0CFF320C0AF
:10242000CEF30301CE51B227CF51B323020E06ECF7
:1024300000F00101D16BF40ED06FCFC375F0CEC3A5
:1024400074F00001EEEC04F00101D36B760ED26F54
:10245000D1C1EAFFD0C1E9FFD3C1E2FFD2C1E1FFA0
:10246000E65002E0EE6EFCD7EF6A000114EC07F0D4
:10247000200E12EC07F0010E1F6E60EC03F021C07D
:10248000CFF320C0CEF30301CE51B427CF51B523F3
:102490000A0E06EC00F00101D16BF40ED06FCFC331
:1024A00075F0CEC374F00001EEEC04F00101D36BC3
:1024B000760ED26FD1C1EAFFD0C1E9FFD3C1E2FFEE
:1024C000D2C1E1FFE65002E0EE6EFCD7EF6A0001F8
:1024D00014EC07F00D0E12EC07F00A0E12EC07F0E8
:1024E0000301992B00018FD7B3C301F0B2C300F0F1
:1024F000056A0A0E046E5CEC00F00301B26F01C0C5
:10250000B3F3B5C301F0B4C300F0056A0A0E046E5C
:102510005CEC00F0B46F01C0B5F3360EA96EB3C326
:1025200037F0B2C336F0000168EC05F0380EA96E42
:10253000B5C337F0B4C336F068EC05F0030E020102
:10254000216FD40E206F300E0001836FB3C381F072
:10255000B2C380F0030E826FF7EC04F00201236B2C
:10256000840E226F020E366F240E356F36C2EAFFDC
:1025700035C2E9FF23C2E2FF22C2E1FFE65002E0DA
:10258000EE6EFCD7EF6A21C2EAFF20C2E9FF040E1B
:10259000F76EE60EF66E36C2E2FF35C2E1FF99EC49
:1025A00000F0E65002E0EE6EFCD7EF6A21C2EAFFCF
:1025B00020C2E9FF21C2E2FF20C2E1FFE65002E0B3
:1025C000EE6EFCD77C0EEE6EEF6A300E0001836F6C
:1025D000B5C381F0B4C380F0030E826FF7EC04F052
:1025E0000201386B840E376F21C2EAFF20C2E9FF77
:1025F00021C2E2FF20C2E1FFE65002E0EE6EFCD70E
:1026000038C2E2FF37C2E1FFE65002E0EE6EFCD7CF
:10261000EF6A21C2EAFF20C2E9FF21C2E2FF20C225
:10262000E1FFE65002E0EE6EFCD77C0EEE6EEF6A44
:1026300000017BEC09F0040E0101D16F2E0ED06F6A
:10264000D1C1EAFFD0C1E9FF6D0EEE5C0001D8A454
:10265000B2D0EF52D8A4AFD0010149810001F7EC0C
:1026600009F0ABC39DF3AAC39CF33A909DC339F024
:102670009CC338F0A8EC07F0640E06EC00F01F6A6B
:1026800060EC03F021C0B3F320C0B2F3010E1F6E63
:1026900060EC03F021C0B5F320C0B4F3360EA96E90
:1026A000B3C337F0B2C336F068EC05F0380EA96E4C
:1026B000B5C337F0B4C336F068EC05F0030E020181
:1026C000216FD40E206F300E0001836FB3C381F0F1
:1026D000B2C380F0030E826FF7EC04F00201236BAB
:1026E000840E226F020E366F240E356F36C2EAFF5B
:1026F00035C2E9FF23C2E2FF22C2E1FFE65002E059
:10270000EE6EFCD7EF6A21C2EAFF20C2E9FF040E99
:10271000F76EE60EF66E36C2E2FF35C2E1FF99ECC7
:1027200000F0E65002E0EE6EFCD7EF6A21C2EAFF4D
:1027300020C2E9FF21C2E2FF20C2E1FFE65002E031
:10274000EE6EFCD77C0EEE6EEF6A300E0001836FEA
:10275000B5C381F0B4C380F0030E826FF7EC04F0D0
:102760000201386B840E376F21C2EAFF20C2E9FFF5
:1027700021C2E2FF20C2E1FFE65002E0EE6EFCD78C
:1027800038C2E2FF37C2E1FFE65002E0EE6EFCD74E
:10279000EF6A21C2EAFF20C2E9FF21C2E2FF20C2A4
:1027A000E1FFE65002E0EE6EFCD77C0EEE6EEF6AC3
:1027B00000017BEC09F0040E0101D16F2E0ED06FE9
:1027C000D1C1EAFFD0C1E9FF500EEE5C00012EE15D
:1027D000EF522CE1500EA96E00EE36F014EE24F00C
:1027E000E65002E0EE6EFCD7EF6A7EEC05F0030ED9
:1027F0000201216FD40E206F040E236F240E226F6E
:1028000021C2EAFF20C2E9FF040EF76EEC0EF66E5D
:1028100023C2E2FF22C2E1FF99EC00F0E65002E0A1
:10282000EE6EFCD7EF6A00017BEC09F0040E0101AB
:10283000D16F2E0ED06FD1C1EAFFD0C1E9FF520E89
:10284000EE5C0001D8A46ED0EF52D8A46BD000EE9D
:1028500080F0040EF76EF80EF66E99EC00F0EF6A59
:102860009CEC03F0220E9BEC03F000EE80F0050ED2
:10287000F76E060EF66E99EC00F0EF6A9CEC03F032
:1028800000EE80F014EE24F0E65002E0EE6EFCD78D
:10289000EF6A9CEC03F0220E9BEC03F02C0E9BECF9
:1028A00003F0220E9BEC03F000EE80F0050EF76EB5
:1028B000100EF66E99EC00F0EF6A9CEC03F0220E1D
:1028C0009BEC03F000EE80F0050EF76E1C0EF66E2A
:1028D00099EC00F0EF6A9CEC03F00D0E9BEC03F01A
:1028E0000A0E9BEC03F0030E0201216FD40E206F41
:1028F000040E236F240E226F21C2EAFF20C2E9FFDB
:10290000050EF76E220EF66E23C2E2FF22C2E1FF31
:1029100099EC00F0E65002E0EE6EFCD7EF6A0001A1
:102920007BEC09F0040E0101D16F2E0ED06FD1C1E6
:10293000EAFFD0C1E9FF3F0EEE5C000107E1EF5274
:1029400005E1010149910001F7EC09F0040E0101D4
:10295000D16F2E0ED06FD1C1EAFFD0C1E9FF510E69
:10296000EE5C00011FE1EF521DE10301BF6BBE6B86
:10297000BD6BBC6BC36BC26BC16BC06BC76BC66BF3
:10298000C56BC46BCB6BCA6BC96BC86B03EED4F061
:10299000050EF76E2A0EF66E99EC00F0EF6A000154
:1029A0007BEC09F0040E0101D16F2E0ED06FD1C166
:1029B000EAFFD0C1E9FF550EEE5C000135E1EF52B0
:1029C00033E100EE1FF014EE24F0E65002E0EE6E6C
:1029D000FCD7EF6A99EC04F02BC0A8FF640EA96E37
:1029E00055EC05F0640E06EC00F0030E0201216FB9
:1029F000D40E206F040E236F240E226F21C2EAFF33
:102A000020C2E9FF050EF76E3A0EF66E23C2E2FF12
:102A100022C2E1FF99EC00F0E65002E0EE6EFCD736
:102A2000EF6A00017BEC09F0040E0101D16F2E0E5C
:102A3000D06FD1C1EAFFD0C1E9FF4A0EEE5C0001C0
:102A400035E1EF5233E100EE1FF014EE24F0E650D2
:102A500002E0EE6EFCD7EF6A99EC04F02BC0A8FF01
:102A6000650EA96E55EC05F0640E06EC00F0030E41
:102A70000201216FD40E206F040E236F240E226FEB
:102A800021C2EAFF20C2E9FF050EF76E3E0EF66E88
:102A900023C2E2FF22C2E1FF99EC00F0E65002E01F
:102AA000EE6EFCD7EF6A00017BEC09F0040E010129
:102AB000D16F2E0ED06FD1C1EAFFD0C1E9FF480E11
:102AC000EE5C000135E1EF5233E100EE1FF014EE51
:102AD00024F0E65002E0EE6EFCD7EF6A99EC04F0C9
:102AE0002BC0A8FF660EA96E55EC05F0640E06EC2F
:102AF00000F0030E0201216FD40E206F040E236F2D
:102B0000240E226F21C2EAFF20C2E9FF050EF76EF4
:102B1000420EF66E23C2E2FF22C2E1FF99EC00F002
:102B2000E65002E0EE6EFCD7EF6A00017BEC09F0A4
:102B300012001200FACF50F20001EACF4FF2E9CFB3
:102B40004EF20301398539A339950001ABB235D076
:102B5000AECF7CF3D896030139B5D88600012DE4B9
:102B6000030139817E517D11000107E001D805D0B4
:102B70007EC3FAFF03017D51F96E0001D89603016F
:102B800039A1D886000119E403EE3AF003017A5125
:102B9000E926000EEA227CC3EFFF7A2B400E7A5D15
:102BA000000102E303017A6B030139937A517B5DE3
:102BB000000102E10301398300014FC2EAFF4EC266
:102BC000E9FF50C2FAFF1100D08EC08E140E03012F
:102BD000376F386B0D0E8C6F8B6B8A6B020E896FA3
:102BE0007C0ED36E400E9B6EF1CF8EF3030E206EE3
:102BF0008E0E1F6E070E216E00012CEC07F08EC3A7
:102C0000F1FF400E616E030E0F01386F396B3A6BA6
:102C1000050EC16E8A0EC06E949894929494949608
:102C200094908B809490010E056EF40E07EC00F0EA
:102C30008B9A949A8B8294928B849494938C0301B4
:102C40008D910F0E206E810E1F6E216A000162ECC5
:102C500006F0206A180E1F6EAEEC06F0010E1F6E15
:102C6000BAEC06F000EEF4F0050EF76E460EF66EC6
:102C700099EC00F0EF6A14EC07F00D0E12EC07F07F
:102C80000A0E12EC07F02B0E206E320E1F6E21EC96
:102C900006F0206A220E1F6E86EC03F00D0E030173
:102CA000386F640E1F6E00015DEC03F0020E03012D
:102CB000926F000181B009D0040EA96E376A366A9E
:102CC00068EC05F0640E06EC00F0040EA96E4EEC04
:102CD00005F023C09DF322C09CF3170E03019D5DF8
:102CE000000106E30FE1710E03019C5D00010AE2A1
:102CF0000001130E03019D5D880ED8B49C5D000198
:102D0000D8B06ED0160E03019D6FE90E9C6F040EB5
:102D1000A96E9DC337F09CC336F0000168EC05F046
:102D2000640E06EC00F0A96AA86A55EC05F0640E82
:102D300006EC00F0320EA96E030E376E840E366E6E
:102D400068EC05F0640E06EC00F0340EA96E030E7C
:102D5000376E840E366E68EC05F0640E06EC00F0FB
:102D6000360EA96E376A960E366E68EC05F0640E64
:102D700006EC00F0380EA96E376A960E366E68ECD7
:102D800005F0640E06EC00F0640EA96E0A0EA86E43
:102D900055EC05F0640E06EC00F0650EA96E1E0EF3
:102DA000A86E55EC05F0640E06EC00F0660EA96EF8
:102DB000500EA86E55EC05F0640E06EC00F0500EB7
:102DC000A96E00EE36F0050EF76E4C0EF66E99EC1D
:102DD00000F0EF6A7EEC05F0640E06EC00F007D020
:102DE0003A809DC339F09CC338F0A8EC07F0320E4E
:102DF000A96E4EEC05F023C0B7F322C0B6F3340E33
:102E0000A96E4EEC05F023C0B9F322C0B8F3360E1C
:102E1000A96E4EEC05F023C0B3F322C0B2F3380E16
:102E2000A96E4EEC05F023C0B5F322C0B4F3640ED6
:102E3000A96E41EC05F020C093F3650EA96E41EC3C
:102E400005F020C094F3660EA96E41EC05F020C099
:102E500095F38B9A949A03018D978D89C80E06EC91
:102E600000F08D93A16BA06B9F6B9E6BBF6BBE6BD5
:102E7000BD6BBC6BC36BC26BC16BC06BB16BB06B1A
:102E8000BB6BBA6B030E0201CF6FD40ECE6FCFC2F5
:102E9000EAFFCEC2E9FFEE6AEF6AA96A000141ECDF
:102EA00005F0205205E1010149810001F7EC09F02C
:102EB000020E0301926FCB6BCA6BC96BC86BC76BF9
:102EC000C66BC56BC46B0001040047EC08F0E0EC76
:102ED00008F00301A553000130E1050E0301A45DD4
:102EE00000012BE20301A753000127E1050E0301B6
:102EF000A65D000122E20301BA4BBB2B270EBB5D8E
:102F0000000119E305E1110E0301BA5D000113E3AD
:102F10000301BF6BBE6BBD6BBC6BC36BC26BC16B84
:102F2000C06BC76BC66BC56BC46BCB6BCA6BC96B15
:102F3000C86BBB6BBA6B000103D00301BB6BBA6BF0
:102F40000301B04BB12BB051640AB1110001D8A4F8
:102F50007FD00301B16BB06B000182AA08D00301DE
:102F6000C82B000EC923CA23CB23000106D00301BE
:102F7000C42B000EC523C623C7230301B16BB06B5E
:102F8000D8968DB3D8860001D8B662D093C396F395
:102F90000301A55304E1A451955D00010BE2030177
:102FA000A75304E1A651955D000104E20001C80E9B
:102FB0000301966F0301A553000111E10301945130
:102FC000A45D00010CE20301A753000108E1030125
:102FD0009451A65D000103E2020E0301966F030106
:102FE0009651A425CC6F000EA521CD6FA651CC5DC6
:102FF000A751CD5900010FE2D89603018DB7D886AD
:10300000000109E40301BC2B000EBD23BE23BF2336
:103010008D878B8A949A03019651A625CC6F000E5A
:10302000A721CD6FA451CC5DA551CD5900010FE270
:10303000D89603018DA7D886000109E40301BC2BB3
:10304000000EBD23BE23BF238D978B9A949A000157
:103050000301A04BA12B130EA15D0001D8A073D1D9
:1030600006E1890E0301A05D0001D8A06CD1030127
:10307000A16BA06B010E925D000116E100EE80F0E5
:10308000050EF76E520EF66E99EC00F0EF6A9CECAE
:1030900003F00D0E9BEC03F00A0E9BEC03F0020E06
:1030A0000301926F00014DD1020E0301925D0001F8
:1030B00027E100EE80F0050EF76E600EF66E99ECDB
:1030C00000F0EF6A9CEC03F00D0E9BEC03F00A0E8F
:1030D0009BEC03F000EEF4F0050EF76E600EF66E5A
:1030E00099EC00F0EF6A14EC07F00D0E12EC07F00B
:1030F0000A0E12EC07F0030E0301926F000121D1BA
:10310000030E0301925D000127E100EE80F0050E41
:10311000F76E700EF66E99EC00F0EF6A9CEC03F01F
:103120000D0E9BEC03F00A0E9BEC03F000EEF4F0A6
:10313000050EF76E700EF66E99EC00F0EF6A14EC67
:1031400007F00D0E12EC07F00A0E12EC07F0040E59
:103150000301926F0001F5D0040E0301925D00019E
:1031600016E100EE80F0050EF76E7C0EF66E99EC1F
:1031700000F0EF6A9CEC03F00D0E9BEC03F00A0EDE
:103180009BEC03F0050E0301926F0001DAD0050EEF
:103190000301925D000127E100EE80F0050EF76E5D
:1031A000860EF66E99EC00F0EF6A9CEC03F00D0EC3
:1031B0009BEC03F00A0E9BEC03F000EEF4F0050E1E
:1031C000F76E860EF66E99EC00F0EF6A14EC07F0DD
:1031D0000D0E12EC07F00A0E12EC07F0060E0301BA
:1031E000926F0001AED0060E0301925D0001D8A4DB
:1031F000A8D0C80EA96E41EC05F02028D8A48CD028
:1032000000EE80F0040EF76EF80EF66E99EC00F00A
:10321000EF6A9CEC03F0220E9BEC03F000EE80F0D2
:10322000050EF76E9A0EF66E99EC00F0EF6A9CECC4
:1032300003F0220E9BEC03F02C0E9BEC03F0220E0D
:103240009BEC03F000EE80F0050EF76E100EF66EAC
:1032500099EC00F0EF6A9CEC03F0220E9BEC03F07B
:1032600000EE80F0050EF76E1C0EF66E99EC00F085
:10327000EF6A9CEC03F00D0E9BEC03F00A0E9BEC46
:1032800003F000EEF4F0050EF76EAA0EF66E99EC60
:1032900000F0EF6A14EC07F0220E12EC07F000EEDB
:1032A000F4F0050EF76E9A0EF66E99EC00F0EF6AE8
:1032B00014EC07F02C0E12EC07F0220E12EC07F0C3
:1032C00000EEF4F0050EF76E100EF66E99EC00F0BD
:1032D000EF6A14EC07F0220E12EC07F000EEF4F0A7
:1032E000050EF76E1C0EF66E99EC00F0EF6A14EC0A
:1032F00007F00D0E12EC07F00A0E12EC07F0030EA9
:10330000056EE80E07EC00F0C80EA96EA86A55EC31
:1033100005F0640E06EC00F0F00EA96EA86A55ECFC
:1033200005F0640E06EC00F00301926B030E02013F
:10333000CF6FD40ECE6FCFC2EAFFCEC2E9FFEE6AE6
:10334000EF6A000104003CEC06F01FA006D02B0E33
:10335000206E320E1F6E21EC06F030EC06F01FA03E
:103360008EEF1EF05AEC06F023C08FF303018F514D
:10337000000112EC07F00A0E03018F5D000125E049
:103380000D0E03018F5D000120E0400E03018F5DF3
:1033900000011BE0030E0201CF6FD40ECE6F030EAF
:1033A000D16FD40ED06FCFC2EAFFCEC2E9FFD1C237
:1033B000E2FFD0C2E1FFE65002E0EE6EFCD78FC321
:1033C000EEFFEF6A00018BEF1EF000EE74F0050EC9
:1033D000F76EC60EF66E99EC00F0EF6A00EE7DF027
:1033E00013EED4F0E65002E0EE6EFCD7EF6ABEECCE
:1033F00005F0D896D1BFD886D8B6FFEF1CF082AAC8
:1034000079D1030E0201CF6FD40ECE6F300E0001C2
:10341000836F9DC381F09CC380F0040E826FF7EC34
:1034200004F00201D16B840ED06F020EE46FD20E55
:10343000E36FE4C2EAFFE3C2E9FFD1C2E2FFD0C218
:10344000E1FFE65002E0EE6EFCD7EF6ACFC2EAFF82
:10345000CEC2E9FF050EF76ECC0EF66EE4C2E2FFB7
:10346000E3C2E1FF99EC00F0E65002E0EE6EFCD71B
:10347000EF6ACFC2EAFFCEC2E9FFCFC2E2FFCEC2FF
:10348000E1FFE65002E0EE6EFCD77C0EEE6EEF6AD6
:10349000300E0001836FA5C381F0A4C380F0030E3A
:1034A000826FF7EC04F00201E66B840EE56F020E0A
:1034B000F96FE70EF86FF9C2EAFFF8C2E9FFE6C25A
:1034C000E2FFE5C2E1FFE65002E0EE6EFCD7EF6AF4
:1034D000CFC2EAFFCEC2E9FFCFC2E2FFCEC2E1FF18
:1034E000E65002E0EE6EFCD7F9C2E2FFF8C2E1FF5F
:1034F000E65002E0EE6EFCD7EF6ACFC2EAFFCEC222
:10350000E9FFCFC2E2FFCEC2E1FFE65002E0EE6E7D
:10351000FCD77C0EEE6EEF6A300E0001836FA7C3FE
:1035200081F0A6C380F0030E826FF7EC04F0020175
:10353000FB6B840EFA6FCFC2EAFFCEC2E9FFCFC2A7
:10354000E2FFCEC2E1FFE65002E0EE6EFCD7FBC226
:10355000E2FFFAC2E1FFE65002E0EE6EFCD7EF6A4E
:10356000CFC2EAFFCEC2E9FFCFC2E2FFCEC2E1FF87
:10357000E65002E0EE6EFCD77C0EEE6EEF6A300E87
:1035800000019E6FBFC39CF0BEC39BF0BDC39AF009
:10359000BCC399F0050E9D6F2CEC05F00201FD6B8C
:1035A0009F0EFC6F020E0301106FFE0E0F6F10C313
:1035B000EAFF0FC3E9FFFDC2E2FFFCC2E1FFE650F4
:1035C00002E0EE6EFCD7EF6ACFC2EAFFCEC2E9FF9F
:1035D000CFC2E2FFCEC2E1FFE65002E0EE6EFCD7C2
:1035E00010C3E2FF0FC3E1FFE65002E0EE6EFCD72E
:1035F000EF6ACFC2EAFFCEC2E9FFCFC2E2FFCEC27E
:10360000E1FFE65002E0EE6EFCD77C0EEE6EEF6A54
:10361000300E00019E6FC7C39CF0C6C39BF0C5C3AC
:103620009AF0C4C399F0080E9D6F2CEC05F00301CD
:10363000126B9F0E116F030E256F130E246F25C39F
:10364000EAFF24C3E9FF12C3E2FF11C3E1FFE65022
:1036500002E0EE6EFCD7EF6ACFC2EAFFCEC2E9FF0E
:10366000CFC2E2FFCEC2E1FFE65002E0EE6EFCD731
:1036700025C3E2FF24C3E1FFE65002E0EE6EFCD773
:10368000EF6ACFC2EAFFCEC2E9FFCFC2E2FFCEC2ED
:10369000E1FFE65002E0EE6EFCD77C0EEE6EEF6AC4
:1036A000300E00019E6FCBC39CF0CAC39BF0C9C310
:1036B0009AF0C8C399F0080E9D6F2CEC05F0030139
:1036C000276B9F0E266FCFC2EAFFCEC2E9FFCFC2A3
:1036D000E2FFCEC2E1FFE65002E0EE6EFCD727C368
:1036E000E2FF26C3E1FFE65002E0EE6EFCD7EF6A90
:1036F000000177D1030E0201CF6FD40ECE6F300ED2
:103700000001836F9DC381F09CC380F0040E826F23
:10371000F7EC04F00201D16B840ED06F020EE46F5F
:10372000D20EE36FE4C2EAFFE3C2E9FFD1C2E2FFD7
:10373000D0C2E1FFE65002E0EE6EFCD7EF6ACFC2E6
:10374000EAFFCEC2E9FF050EF76ED20EF66EE4C2B6
:10375000E2FFE3C2E1FF99EC00F0E65002E0EE6E1A
:10376000FCD7EF6ACFC2EAFFCEC2E9FFCFC2E2FFC9
:10377000CEC2E1FFE65002E0EE6EFCD77C0EEE6EAC
:10378000EF6A300E0001836FA5C381F0A4C380F0FF
:10379000030E826FF7EC04F00201E66B840EE56F16
:1037A000020EF96FE70EF86FF9C2EAFFF8C2E9FFFF
:1037B000E6C2E2FFE5C2E1FFE65002E0EE6EFCD7B2
:1037C000EF6ACFC2EAFFCEC2E9FFCFC2E2FFCEC2AC
:1037D000E1FFE65002E0EE6EFCD7F9C2E2FFF8C26C
:1037E000E1FFE65002E0EE6EFCD7EF6ACFC2EAFFDF
:1037F000CEC2E9FFCFC2E2FFCEC2E1FFE65002E057
:10380000EE6EFCD77C0EEE6EEF6A300E0001836F19
:10381000A7C381F0A6C380F0030E826FF7EC04F01B
:103820000201FB6B840EFA6FCFC2EAFFCEC2E9FF42
:10383000CFC2E2FFCEC2E1FFE65002E0EE6EFCD75F
:10384000FBC2E2FFFAC2E1FFE65002E0EE6EFCD7F7
:10385000EF6ACFC2EAFFCEC2E9FFCFC2E2FFCEC21B
:10386000E1FFE65002E0EE6EFCD77C0EEE6EEF6AF2
:10387000300E00019E6FBFC39CF0BEC39BF0BDC362
:103880009AF0BCC399F0050E9D6F2CEC05F0020177
:10389000FD6B9F0EFC6F020E0301106FFE0E0F6F8B
:1038A00010C3EAFF0FC3E9FFFDC2E2FFFCC2E1FF64
:1038B000E65002E0EE6EFCD7EF6ACFC2EAFFCEC25E
:1038C000E9FFCFC2E2FFCEC2E1FFE65002E0EE6EBA
:1038D000FCD710C3E2FF0FC3E1FFE65002E0EE6E3B
:1038E000FCD7EF6ACFC2EAFFCEC2E9FFCFC2E2FF48
:1038F000CEC2E1FFE65002E0EE6EFCD77C0EEE6E2B
:10390000EF6A300E00019E6FC7C39CF0C6C39BF0E8
:10391000C5C39AF0C4C399F0080E9D6F2CEC05F056
:103920000301126B9F0E116F030E256F130E246F90
:1039300025C3EAFF24C3E9FF12C3E2FF11C3E1FF7D
:10394000E65002E0EE6EFCD7EF6ACFC2EAFFCEC2CD
:10395000E9FFCFC2E2FFCEC2E1FFE65002E0EE6E29
:10396000FCD725C3E2FF24C3E1FFE65002E0EE6E80
:10397000FCD7EF6ACFC2EAFFCEC2E9FFCFC2E2FFB7
:10398000CEC2E1FFE65002E0EE6EFCD77C0EEE6E9A
:10399000EF6A300E00019E6FCBC39CF0CAC39BF050
:1039A000C9C39AF0C8C399F0080E9D6F2CEC05F0BE
:1039B0000301276B9F0E266FCFC2EAFFCEC2E9FF3D
:1039C000CFC2E2FFCEC2E1FFE65002E0EE6EFCD7CE
:1039D00027C3E2FF26C3E1FFE65002E0EE6EFCD70C
:1039E000EF6A00017BEC09F0030E0201CF6FD40EE9
:1039F000CE6FCFC2EAFFCEC2E9FFEE6AEF6A0201E4
:103A00007F6B740E7E6F7FC2EAFF7EC2E9FF400EBD
:103A1000EE6EEF6A00EE7DF013EED4F0E65002E0B9
:103A2000EE6EFCD7EF6A0001BEEC05F0D896D1BF70
:103A3000D886D8B658D000EEF4F0050EF76ED80E42
:103A4000F66E99EC00F0EF6A14EC07F000EEF4F07B
:103A500013EED4F0E65002E0EE6EFCD7EF6A14EC01
:103A600007F00D0E12EC07F00A0E12EC07F002013F
:103A70007F6BF40E7E6F816B740E806F81C2EAFFE4
:103A800080C2E9FF050EF76EE40EF66E99EC00F0C9
:103A9000EF6A00EE7DF013EED4F0E65002E0EE6E39
:103AA000FCD7EF6A0001BEEC05F0D1C0DBF0D0C05E
:103AB000DAF00D0EDC6F0A0EDD6F08EC05F0020186
:103AC000896BDF0E886F7FC2EAFF7EC2E9FF89C281
:103AD000E2FF88C2E1FFE65002E0EE6EFCD7EF6A3B
:103AE000000114EC07F000EE74F0050EF76EEA0E1C
:103AF000F66E99EC00F0EF6A00EE7DF013EED4F074
:103B0000E65002E0EE6EFCD7EF6ABEEC05F0D0297D
:103B1000D8B4D129D8B473D003018D81030E02012A
:103B2000CF6FD40ECE6F300E0001836F9DC381F036
:103B30009CC380F0040E826FF7EC04F00201D16B9D
:103B4000840ED06FCFC2EAFFCEC2E9FF050EF76E3A
:103B5000F40EF66ED1C2E2FFD0C2E1FF99EC00F0A4
:103B6000E65002E0EE6EFCD7EF6ACFC2EAFFCEC2AB
:103B7000E9FFCFC2E2FFCEC2E1FFE65002E0EE6E07
:103B8000FCD77C0EEE6EEF6AA96A000141EC05F0ED
:103B900020C0D2F2300E9B6FD2C299F0010E9A6F04
:103BA000DFEC04F00201D46B9C0ED36FCFC2EAFFAE
:103BB000CEC2E9FFCFC2E2FFCEC2E1FFE65002E093
:103BC000EE6EFCD7D4C2E2FFD3C2E1FFE65002E0C2
:103BD000EE6EFCD7EF6ACFC2EAFFCEC2E9FFCFC2DA
:103BE000E2FFCEC2E1FFE65002E0EE6EFCD77C0EB3
:103BF000EE6EEF6A00017BEC09F003018D95000188
:103C000000EE74F0050EF76EE40EF66E99EC00F01F
:103C1000EF6A00EE7DF013EED4F0E65002E0EE6EB7
:103C2000FCD7EF6ABEEC05F0D029D8B4D12939E031
:103C300002017F6B740E7E6F7FC2EAFF7EC2E9FFD6
:103C4000240EEE6EEF6A00EE7DF013EED4F0E65037
:103C500002E0EE6EFCD7EF6A0001BEEC05F0D896EC
:103C6000D1AFD88613E400EEF4F0050EF76EF80E2F
:103C7000F66E99EC00F0EF6A14EC07F00D0E12EC02
:103C800007F00A0E12EC07F0B4EC0AF0030E020182
:103C9000CF6FD40ECE6FCFC2EAFFCEC2E9FFEE6A7D
:103CA000EF6A000100EE74F0060EF76E000EF66E7D
:103CB00099EC00F0EF6A00EE7DF013EED4F0E650E0
:103CC00002E0EE6EFCD7EF6ABEEC05F0D029D8B466
:103CD000D12915E0D89603018DA1D88600010FE403
:103CE00003018D91030E0201CF6FD40ECE6FCFC2B0
:103CF000EAFFCEC2E9FFEE6AEF6A03018D9500018B
:103D0000030E0201CF6FD40ECE6FCFC2EAFFCEC238
:103D1000E9FFEE6AEF6A0001ADEF19F063EF17F00B
:043D20000300FED7C7
:020000040030CA
:03000100281B1C9D
:02000500BD80BC
:060008000FC00FE00F40E5
:00000001FF
